:100000000C942A000C9434000C9434000C943400AA
:100010000C9434000C9434000C9434000C94340090
:100020000C9434000C9434000C9434000C94340080
:100030000C9434000C9434000C9434000C94340070
:100040000C9434000C9434000C9434000C94340060
:100050000C94340011241FBECFE5D8E0DEBFCDBF25
:100060000E9436000C947C010C9400008FEF87BB3B
:1000700080EC87B980E886B9CFEF369A3699FECF03
:1000800064B175B180E090E00E94580020E030E05B
:1000900040E85EE30E949A0020E030E040EA51E44C
:1000A0000E949500181614F4C8BBE7CF18BAE5CF24
:1000B000E89409C097FB3EF4909580957095619502
:1000C0007F4F8F4F9F4F9923A9F0F92F96E9BB27B8
:1000D0009395F695879577956795B795F111F8CF34
:1000E000FAF4BB0F11F460FF1BC06F5F7F4F8F4F9F
:1000F0009F4F16C0882311F096E911C0772321F095
:100100009EE8872F762F05C0662371F096E8862F2C
:1001100070E060E02AF09A95660F771F881FDAF783
:10012000880F9695879597F908950E94070108F41E
:100130008FEF08950E94AD000C9442010E9434019B
:1001400038F00E943B0120F0952311F00C942B0114
:100150000C94310111240C9476010E94530170F328
:10016000959FC1F3950F50E0551F629FF001729F5C
:10017000BB27F00DB11D639FAA27F00DB11DAA1F6B
:10018000649F6627B00DA11D661F829F2227B00DB8
:10019000A11D621F739FB00DA11D621F839FA00D43
:1001A000611D221F749F3327A00D611D231F849F93
:1001B000600D211D822F762F6A2F11249F575040EA
:1001C0009AF0F1F088234AF0EE0FFF1FBB1F661F65
:1001D000771F881F91505040A9F79E3F510580F02E
:1001E0000C942B010C9476015F3FE4F3983ED4F31A
:1001F000869577956795B795F795E7959F5FC1F7D2
:10020000FE2B880F911D9695879597F90895990F64
:100210000008550FAA0BE0E8FEEF16161706E807D0
:10022000F907C0F012161306E407F50798F0621BF1
:10023000730B840B950B39F40A2661F0232B242BC6
:10024000252B21F408950A2609F4A140A6958FEFE5
:10025000811D811D089597F99F6780E870E060E037
:1002600008959FEF80EC089500240A94161617064F
:1002700018060906089500240A9412161306140697
:1002800005060895092E0394000C11F4882352F0FA
:10029000BB0F40F4BF2B11F460FF04C06F5F7F4FB2
:1002A0008F4F9F4F089557FD9058440F551F59F099
:1002B0005F3F71F04795880F97FB991F61F09F3F53
:1002C00079F087950895121613061406551FF2CF7C
:1002D0004695F1DF08C0161617061806991FF1CFCC
:1002E00086957105610508940895E894BB276627F3
:0C02F0007727CB0197F90895F894FFCF11
:00000001FF
