S01700004763634170706C69636174696F6E312E737265635B
S11300000C942A000C943C000C943C000C943C008E
S11300100C943C000C943C000C943C000C943C006C
S11300200C943C000C943C000C943C000C943C005C
S11300300C943C000C943C000C943C000C943C004C
S11300400C943C000C943C000C943C000C943C003C
S11300500C943C0011241FBECFE5D8E0DEBFCDBF19
S113006020E0A0E6B0E001C01D92A238B207E1F79B
S11300700E940D030C94D8030C940000672B09F024
S1130080DFC0009721F48BB38E7F8BBB0895813042
S1130090910521F48BB38D7F8BBB0895823091053C
S11300A021F48BB38B7F8BBB08958330910521F4AE
S11300B08BB3877F8BBB08958430910521F48BB378
S11300C08F7E8BBB08958530910521F48BB38F7D92
S11300D08BBB08958630910521F48BB38F7B8BBB4A
S11300E008958730910521F48BB38F778BBB0895E6
S11300F08A30910521F488B38E7F88BB08958B30B4
S1130100910521F488B38D7F88BB08958C309105C7
S113011021F488B38B7F88BB08958D30910521F439
S113012088B3877F88BB08958E30910521F488B306
S11301308F7E88BB08958F30910521F488B38F7D1D
S113014088BB08958031910521F488B38F7B88BBE7
S113015008958131910521F488B38F7788BB089580
S11301608431910521F485B38E7F85BB0895853153
S1130170910521F485B38D7F85BB08958631910562
S113018021F485B38B7F85BB08958731910521F4D4
S113019085B3877F85BB08958831910521F485B3A4
S11301A08F7E85BB08958931910521F485B38F7DB8
S11301B085BB08958A31910521F485B38F7B85BB76
S11301C008958B31910521F485B38F7785BB08950C
S11301D08E31910521F482B38E7F82BB08958F31D5
S11301E0910521F482B38D7F82BB089580329105FD
S11301F021F482B38B7F82BB08958132910521F46F
S113020082B3877F82BB08958232910521F482B341
S11302108F7E82BB08958332910521F482B38F7D52
S113022082BB08958432910521F482B38F7B82BB13
S11302300895859709F0E1C082B38F7782BB089552
S1130240009721F48BB381608BBB089581309105B5
S113025021F48BB382608BBB08958230910521F425
S11302608BB384608BBB08958330910521F48BB3E9
S113027088608BBB08958430910521F48BB3806131
S11302808BBB08958530910521F48BB380628BBBC1
S113029008958630910521F48BB380648BBB089557
S11302A08730910521F48BB380688BBB08958A3025
S11302B0910521F488B3816088BB08958B30910542
S11302C021F488B3826088BB08958C30910521F4B1
S11302D088B3846088BB08958D30910521F488B378
S11302E0886088BB08958E30910521F488B38061BD
S11302F088BB08958F30910521F488B3806288BB50
S113030008958031910521F488B3806488BB0895F1
S11303108131910521F488B3806888BB08958431C4
S1130320910521F485B3816085BB089585319105DC
S113033021F485B3826085BB08958631910521F44B
S113034085B3846085BB08958731910521F485B315
S1130350886085BB08958831910521F485B3806157
S113036085BB08958931910521F485B3806285BBED
S113037008958A31910521F485B3806485BB08957D
S11303808B31910521F485B3806885BB08958E3146
S1130390910521F482B3816082BB08958F31910568
S11303A021F482B3826082BB08958032910521F4E6
S11303B082B3846082BB08958132910521F482B3B3
S11303C0886082BB08958232910521F482B38061F2
S11303D082BB08958332910521F482B3806282BB8B
S11303E008958432910521F482B3806482BB089518
S11303F0859719F482B3806882BB0895CF93C82F80
S113040080FF07C061E070E082E290E00E943E005D
S113041006C060E070E082E290E00E943E00C1FF0E
S113042007C061E070E083E290E00E943E0006C0F5
S113043060E070E083E290E00E943E00C2FF07C0EB
S113044061E070E084E290E00E943E0006C060E05B
S113045070E084E290E00E943E00C3FF07C061E0C8
S113046070E085E290E00E943E0006C060E070E02B
S113047085E290E00E943E00CF910895CF93C82F6B
S113048060E070E08AE190E00E943E008C2F0E94C0
S1130490FE0161E070E08BE190E00E943E008FE994
S11304A09FE00197F1F700C0000060E070E08BE18D
S11304B090E00E943E008FE99FE00197F1F700C0B1
S11304C00000CF910895CF93813061F480E8860FC6
S11304D0C62FCF7082958F700E943E028C2F0E948F
S11304E03E020DC0823059F480EC860FC62FCF70C7
S11304F082958F700E943E028C2F0E943E02CF9103
S1130500089580E00E94FE012FEF89EF90E02150D2
S113051080409040E1F700C0000083E00E943E026A
S11305208FE19EE40197F1F700C0000083E00E9490
S11305303E028FED9BEA0197F1F700C0000083E0D3
S11305400E943E0282E00E943E0282E00E943E023D
S113055088E00E943E0280E00E943E028CE00E94FD
S11305603E0280E00E943E0286E00E943E02089520
S1130570CF93DF93D82FDF70C82FC07F61E070E086
S11305808AE190E00E943E008C2F82958F700E9439
S1130590FE0161E070E08BE190E00E943E008FE993
S11305A09FE00197F1F700C0000060E070E08BE18C
S11305B090E00E943E008FE99FE00197F1F700C0B0
S11305C000008D2F0E94FE0161E070E08BE190E05D
S11305D00E943E008FE99FE00197F1F700C0000000
S11305E060E070E08BE190E00E943E008FE99FE0C4
S11305F00197F1F700C00000DF91CF91089588E1E1
S11306008AB980B5866880BD87E689B910BC08952B
S11306105F9BFECF8CB190E008958FEF81BB84BBCC
S11306200E9481020E94FF020E94080380938100BD
S11306308432D1F70E940803809381008734A1F7A4
S11306400E94080380938100803571F70E9408039B
S113065080938100873441F70E94080380938100CE
S1130660873411F70E940803809381008134E1F6F6
S11306700E940803809381008C32B1F60E94080323
S11306808093810004C00E940803809381008091BC
S113069081008C32C1F70E9408038093720080931A
S11306A08100C1E00BC00C2F10E00E940803F80188
S11306B0EE58FF4F808380938100CF5F809181004B
S11306C08C3289F70E940803809361000E9408031A
S11306D08093810004C00E9408038093810080916C
S11306E081008C32C1F70E940803809363008093D9
S11306F08100C1E00BC00C2F10E00E940803F80138
S1130700ED59FF4F808380938100CF5F80918100FA
S11307108C3289F70E940803809360008FE99FE080
S11307200197F1F700C000009FEF23ED80E39150A3
S113073020408040E1F700C0000061E081E00E94B9
S11307406302C0E003C00E94B802CF5FEC2FF0E068
S1130750EE58FF4F80818111F6CF809161000E9495
S1130760B8029FEF23ED80E3915020408040E1F7F1
S113077000C0000061E082E00E946302C0E003C0A8
S11307800E94B802CF5FEC2FF0E0ED59FF4F80815B
S11307908111F6CF809160000E94B8029FEF23ED93
S11307A080E3915020408040E1F700C000003CCF3E
S10707B0F894FFCFE7
S9030000FC
